{
  "contractName": "RealtRentOpti",
  "abi": [
    {
      "anonymous": false,
      "inputs": [
        {
          "indexed": false,
          "internalType": "uint256",
          "name": "_amountUSDC",
          "type": "uint256"
        },
        {
          "indexed": false,
          "internalType": "uint256",
          "name": "_amountWXDAI",
          "type": "uint256"
        }
      ],
      "name": "Deposit",
      "type": "event"
    },
    {
      "anonymous": false,
      "inputs": [
        {
          "indexed": true,
          "internalType": "address",
          "name": "previousOwner",
          "type": "address"
        },
        {
          "indexed": true,
          "internalType": "address",
          "name": "newOwner",
          "type": "address"
        }
      ],
      "name": "OwnershipTransferred",
      "type": "event"
    },
    {
      "anonymous": false,
      "inputs": [
        {
          "indexed": false,
          "internalType": "uint256",
          "name": "_amountUSDC",
          "type": "uint256"
        },
        {
          "indexed": false,
          "internalType": "uint256",
          "name": "_amountWXDAI",
          "type": "uint256"
        }
      ],
      "name": "Repaid",
      "type": "event"
    },
    {
      "inputs": [],
      "name": "owner",
      "outputs": [
        {
          "internalType": "address",
          "name": "",
          "type": "address"
        }
      ],
      "stateMutability": "view",
      "type": "function"
    },
    {
      "inputs": [],
      "name": "renounceOwnership",
      "outputs": [],
      "stateMutability": "nonpayable",
      "type": "function"
    },
    {
      "inputs": [
        {
          "internalType": "address",
          "name": "newOwner",
          "type": "address"
        }
      ],
      "name": "transferOwnership",
      "outputs": [],
      "stateMutability": "nonpayable",
      "type": "function"
    },
    {
      "inputs": [
        {
          "internalType": "uint256",
          "name": "",
          "type": "uint256"
        }
      ],
      "name": "whitelistAddresses",
      "outputs": [
        {
          "internalType": "address",
          "name": "",
          "type": "address"
        }
      ],
      "stateMutability": "view",
      "type": "function"
    },
    {
      "inputs": [
        {
          "internalType": "address",
          "name": "_owner",
          "type": "address"
        },
        {
          "internalType": "uint256",
          "name": "_maxUsdcAmountToSpend",
          "type": "uint256"
        }
      ],
      "name": "initialize",
      "outputs": [],
      "stateMutability": "nonpayable",
      "type": "function"
    },
    {
      "inputs": [],
      "name": "rmmDeposit",
      "outputs": [],
      "stateMutability": "nonpayable",
      "type": "function"
    },
    {
      "inputs": [],
      "name": "rmmRepay",
      "outputs": [],
      "stateMutability": "nonpayable",
      "type": "function"
    },
    {
      "inputs": [],
      "name": "redeemTokens",
      "outputs": [],
      "stateMutability": "nonpayable",
      "type": "function"
    },
    {
      "inputs": [
        {
          "internalType": "uint256",
          "name": "_maxUsdcAmountToSpend",
          "type": "uint256"
        }
      ],
      "name": "setMaxUsdcAmountToSpend",
      "outputs": [],
      "stateMutability": "nonpayable",
      "type": "function"
    },
    {
      "inputs": [
        {
          "internalType": "address",
          "name": "_address",
          "type": "address"
        }
      ],
      "name": "whitelistAddress",
      "outputs": [],
      "stateMutability": "nonpayable",
      "type": "function"
    },
    {
      "inputs": [
        {
          "internalType": "uint8",
          "name": "_addressIndex",
          "type": "uint8"
        }
      ],
      "name": "removeFromWhitelist",
      "outputs": [],
      "stateMutability": "nonpayable",
      "type": "function"
    },
    {
      "inputs": [],
      "name": "whitelistSize",
      "outputs": [
        {
          "internalType": "uint256",
          "name": "",
          "type": "uint256"
        }
      ],
      "stateMutability": "view",
      "type": "function"
    },
    {
      "inputs": [
        {
          "internalType": "address",
          "name": "_address",
          "type": "address"
        }
      ],
      "name": "isWhitelisted",
      "outputs": [
        {
          "internalType": "bool",
          "name": "",
          "type": "bool"
        }
      ],
      "stateMutability": "view",
      "type": "function"
    }
  ],
  "bytecode": "0x60806040523480156200001157600080fd5b5062000032620000266200003860201b60201c565b6200004060201b60201c565b62000104565b600033905090565b60008060009054906101000a900473ffffffffffffffffffffffffffffffffffffffff169050816000806101000a81548173ffffffffffffffffffffffffffffffffffffffff021916908373ffffffffffffffffffffffffffffffffffffffff1602179055508173ffffffffffffffffffffffffffffffffffffffff168173ffffffffffffffffffffffffffffffffffffffff167f8be0079c531659141344cd1fd0a4f28419497f9722a3daafe3b4186f6b6457e060405160405180910390a35050565b6128fe80620001146000396000f3fe608060405234801561001057600080fd5b50600436106100af5760003560e01c80633af32abf146100b457806340c89b24146100e457806341566585146101005780635d1235d41461011c57806362d8fc521461014c578063715018a6146101565780638da5cb5b146101605780639a6b15a61461017e578063bffe99361461019a578063cd6dc687146101a4578063e9a9c50c146101c0578063f0a43714146101ca578063f2fde38b146101e8575b600080fd5b6100ce60048036038101906100c99190611cf4565b610204565b6040516100db9190611d3c565b60405180910390f35b6100fe60048036038101906100f99190611d90565b61025a565b005b61011a60048036038101906101159190611cf4565b610348565b005b61013660048036038101906101319190611df3565b61059c565b6040516101439190611e2f565b60405180910390f35b6101546105db565b005b61015e610df6565b005b610168610e0a565b6040516101759190611e2f565b60405180910390f35b61019860048036038101906101939190611df3565b610e33565b005b6101a2610e45565b005b6101be60048036038101906101b99190611e4a565b61149d565b005b6101c86115df565b005b6101d2611970565b6040516101df9190611e99565b60405180910390f35b61020260048036038101906101fd9190611cf4565b61197d565b005b6000600260008373ffffffffffffffffffffffffffffffffffffffff1673ffffffffffffffffffffffffffffffffffffffff16815260200190815260200160002060009054906101000a900460ff169050919050565b610262611a00565b8060ff16600380549050116102ac576040517f08c379a00000000000000000000000000000000000000000000000000000000081526004016102a390611f11565b60405180910390fd5b60006002600060038460ff16815481106102c9576102c8611f31565b5b9060005260206000200160009054906101000a900473ffffffffffffffffffffffffffffffffffffffff1673ffffffffffffffffffffffffffffffffffffffff1673ffffffffffffffffffffffffffffffffffffffff16815260200190815260200160002060006101000a81548160ff02191690831515021790555050565b610350611a00565b600560ff166003805490501061039b576040517f08c379a000000000000000000000000000000000000000000000000000000000815260040161039290611fd2565b60405180910390fd5b60001515600260008373ffffffffffffffffffffffffffffffffffffffff1673ffffffffffffffffffffffffffffffffffffffff16815260200190815260200160002060009054906101000a900460ff1615151461042e576040517f08c379a00000000000000000000000000000000000000000000000000000000081526004016104259061203e565b60405180910390fd5b600080600090505b6003805490508160ff1610156104d6578273ffffffffffffffffffffffffffffffffffffffff1660038260ff168154811061047457610473611f31565b5b9060005260206000200160009054906101000a900473ffffffffffffffffffffffffffffffffffffffff1673ffffffffffffffffffffffffffffffffffffffff16036104c357600191506104d6565b80806104ce9061208d565b915050610436565b5080610540576003829080600181540180825580915050600190039060005260206000200160009091909190916101000a81548173ffffffffffffffffffffffffffffffffffffffff021916908373ffffffffffffffffffffffffffffffffffffffff1602179055505b6001600260008473ffffffffffffffffffffffffffffffffffffffff1673ffffffffffffffffffffffffffffffffffffffff16815260200190815260200160002060006101000a81548160ff0219169083151502179055505050565b600381815481106105ac57600080fd5b906000526020600020016000915054906101000a900473ffffffffffffffffffffffffffffffffffffffff1681565b600260003373ffffffffffffffffffffffffffffffffffffffff1673ffffffffffffffffffffffffffffffffffffffff16815260200190815260200160002060009054906101000a900460ff16610667576040517f08c379a000000000000000000000000000000000000000000000000000000000815260040161065e90612102565b60405180910390fd5b600060149054906101000a900460ff166106b6576040517f08c379a00000000000000000000000000000000000000000000000000000000081526004016106ad9061216e565b60405180910390fd5b600073ddafbb505ad214d7b80b1f830fccc89b60fb7a83905060008173ffffffffffffffffffffffffffffffffffffffff166370a082316106f5610e0a565b6040518263ffffffff1660e01b81526004016107119190611e2f565b602060405180830381865afa15801561072e573d6000803e3d6000fd5b505050506040513d601f19601f8201168201806040525081019061075291906121a3565b11610792576040517f08c379a00000000000000000000000000000000000000000000000000000000081526004016107899061221c565b60405180910390fd5b6000736a7ced66902d07066ad08c81179d17d0fbe36829905060008173ffffffffffffffffffffffffffffffffffffffff166370a082316107d1610e0a565b6040518263ffffffff1660e01b81526004016107ed9190611e2f565b602060405180830381865afa15801561080a573d6000803e3d6000fd5b505050506040513d601f19601f8201168201806040525081019061082e91906121a3565b1161086e576040517f08c379a000000000000000000000000000000000000000000000000000000000815260040161086590612288565b60405180910390fd5b64e8d4a5100060015461088191906122a8565b8173ffffffffffffffffffffffffffffffffffffffff166370a082316108a5610e0a565b6040518263ffffffff1660e01b81526004016108c19190611e2f565b602060405180830381865afa1580156108de573d6000803e3d6000fd5b505050506040513d601f19601f8201168201806040525081019061090291906121a3565b11610942576040517f08c379a00000000000000000000000000000000000000000000000000000000081526004016109399061234e565b60405180910390fd5b60006001548373ffffffffffffffffffffffffffffffffffffffff166370a0823161096b610e0a565b6040518263ffffffff1660e01b81526004016109879190611e2f565b602060405180830381865afa1580156109a4573d6000803e3d6000fd5b505050506040513d601f19601f820116820180604052508101906109c891906121a3565b11610a53578273ffffffffffffffffffffffffffffffffffffffff166370a082316109f1610e0a565b6040518263ffffffff1660e01b8152600401610a0d9190611e2f565b602060405180830381865afa158015610a2a573d6000803e3d6000fd5b505050506040513d601f19601f82011682018060405250810190610a4e91906121a3565b610a57565b6001545b9050808373ffffffffffffffffffffffffffffffffffffffff1663dd62ed3e610a7e610e0a565b306040518363ffffffff1660e01b8152600401610a9c92919061236e565b602060405180830381865afa158015610ab9573d6000803e3d6000fd5b505050506040513d601f19601f82011682018060405250810190610add91906121a3565b1015610b1e576040517f08c379a0000000000000000000000000000000000000000000000000000000008152600401610b15906123e3565b60405180910390fd5b8273ffffffffffffffffffffffffffffffffffffffff166323b872dd610b42610e0a565b30846040518463ffffffff1660e01b8152600401610b6293929190612403565b6020604051808303816000875af1158015610b81573d6000803e3d6000fd5b505050506040513d601f19601f82011682018060405250810190610ba59190612466565b508273ffffffffffffffffffffffffffffffffffffffff1663095ea7b3737f90122bf0700f9e7e1f688fe926940e8839f353836040518363ffffffff1660e01b8152600401610bf5929190612493565b6020604051808303816000875af1158015610c14573d6000803e3d6000fd5b505050506040513d601f19601f82011682018060405250810190610c389190612466565b506000610c4682600a611a7e565b90506000610c548383611b1e565b90506000735b8d36de471880ee21936f328aab2383a280cb2a905073e91d153e0b41518a2ce8dd3d7944fa863463a97d73ffffffffffffffffffffffffffffffffffffffff1663095ea7b3735b8d36de471880ee21936f328aab2383a280cb2a846040518363ffffffff1660e01b8152600401610cd2929190612493565b6020604051808303816000875af1158015610cf1573d6000803e3d6000fd5b505050506040513d601f19601f82011682018060405250810190610d159190612466565b508073ffffffffffffffffffffffffffffffffffffffff1663573ade8173e91d153e0b41518a2ce8dd3d7944fa863463a97d846002610d52610e0a565b6040518563ffffffff1660e01b8152600401610d719493929190612501565b6020604051808303816000875af1158015610d90573d6000803e3d6000fd5b505050506040513d601f19601f82011682018060405250810190610db491906121a3565b507f81472a96709c8315c82af40d41ef624a642ad53864b097e53af675593bb4e0358483604051610de6929190612546565b60405180910390a1505050505050565b610dfe611a00565b610e086000611bc5565b565b60008060009054906101000a900473ffffffffffffffffffffffffffffffffffffffff16905090565b610e3b611a00565b8060018190555050565b600260003373ffffffffffffffffffffffffffffffffffffffff1673ffffffffffffffffffffffffffffffffffffffff16815260200190815260200160002060009054906101000a900460ff16610ed1576040517f08c379a0000000000000000000000000000000000000000000000000000000008152600401610ec890612102565b60405180910390fd5b600060149054906101000a900460ff16610f20576040517f08c379a0000000000000000000000000000000000000000000000000000000008152600401610f179061216e565b60405180910390fd5b600073ddafbb505ad214d7b80b1f830fccc89b60fb7a83905060008173ffffffffffffffffffffffffffffffffffffffff166370a08231610f5f610e0a565b6040518263ffffffff1660e01b8152600401610f7b9190611e2f565b602060405180830381865afa158015610f98573d6000803e3d6000fd5b505050506040513d601f19601f82011682018060405250810190610fbc91906121a3565b11610ffc576040517f08c379a0000000000000000000000000000000000000000000000000000000008152600401610ff39061221c565b60405180910390fd5b60006001548273ffffffffffffffffffffffffffffffffffffffff166370a08231611025610e0a565b6040518263ffffffff1660e01b81526004016110419190611e2f565b602060405180830381865afa15801561105e573d6000803e3d6000fd5b505050506040513d601f19601f8201168201806040525081019061108291906121a3565b1161110d578173ffffffffffffffffffffffffffffffffffffffff166370a082316110ab610e0a565b6040518263ffffffff1660e01b81526004016110c79190611e2f565b602060405180830381865afa1580156110e4573d6000803e3d6000fd5b505050506040513d601f19601f8201168201806040525081019061110891906121a3565b611111565b6001545b9050808273ffffffffffffffffffffffffffffffffffffffff1663dd62ed3e611138610e0a565b306040518363ffffffff1660e01b815260040161115692919061236e565b602060405180830381865afa158015611173573d6000803e3d6000fd5b505050506040513d601f19601f8201168201806040525081019061119791906121a3565b10156111d8576040517f08c379a00000000000000000000000000000000000000000000000000000000081526004016111cf906123e3565b60405180910390fd5b8173ffffffffffffffffffffffffffffffffffffffff166323b872dd6111fc610e0a565b30846040518463ffffffff1660e01b815260040161121c93929190612403565b6020604051808303816000875af115801561123b573d6000803e3d6000fd5b505050506040513d601f19601f8201168201806040525081019061125f9190612466565b508173ffffffffffffffffffffffffffffffffffffffff1663095ea7b3737f90122bf0700f9e7e1f688fe926940e8839f353836040518363ffffffff1660e01b81526004016112af929190612493565b6020604051808303816000875af11580156112ce573d6000803e3d6000fd5b505050506040513d601f19601f820116820180604052508101906112f29190612466565b50600061130082600a611a7e565b9050600061130e8383611b1e565b90506000735b8d36de471880ee21936f328aab2383a280cb2a905073e91d153e0b41518a2ce8dd3d7944fa863463a97d73ffffffffffffffffffffffffffffffffffffffff1663095ea7b3735b8d36de471880ee21936f328aab2383a280cb2a846040518363ffffffff1660e01b815260040161138c929190612493565b6020604051808303816000875af11580156113ab573d6000803e3d6000fd5b505050506040513d601f19601f820116820180604052508101906113cf9190612466565b508073ffffffffffffffffffffffffffffffffffffffff1663e8eda9df73e91d153e0b41518a2ce8dd3d7944fa863463a97d8461140a610e0a565b60006040518563ffffffff1660e01b815260040161142b94939291906125b8565b600060405180830381600087803b15801561144557600080fd5b505af1158015611459573d6000803e3d6000fd5b505050507fa3af609bf46297028ce551832669030f9effef2b02606d02cbbcc40fe6b47c55848360405161148e929190612546565b60405180910390a15050505050565b6114a5611a00565b600060149054906101000a900460ff16156114f5576040517f08c379a00000000000000000000000000000000000000000000000000000000081526004016114ec90612649565b60405180910390fd5b6001600060146101000a81548160ff0219169083151502179055506115198261197d565b806001819055506001600260008473ffffffffffffffffffffffffffffffffffffffff1673ffffffffffffffffffffffffffffffffffffffff16815260200190815260200160002060006101000a81548160ff0219169083151502179055506003829080600181540180825580915050600190039060005260206000200160009091909190916101000a81548173ffffffffffffffffffffffffffffffffffffffff021916908373ffffffffffffffffffffffffffffffffffffffff1602179055505050565b6115e7611a00565b600060149054906101000a900460ff16611636576040517f08c379a000000000000000000000000000000000000000000000000000000000815260040161162d9061216e565b60405180910390fd5b600073ddafbb505ad214d7b80b1f830fccc89b60fb7a83905060008173ffffffffffffffffffffffffffffffffffffffff166370a08231306040518263ffffffff1660e01b815260040161168a9190611e2f565b602060405180830381865afa1580156116a7573d6000803e3d6000fd5b505050506040513d601f19601f820116820180604052508101906116cb91906121a3565b11156117d1578073ffffffffffffffffffffffffffffffffffffffff1663a9059cbb6116f5610e0a565b8373ffffffffffffffffffffffffffffffffffffffff166370a08231306040518263ffffffff1660e01b815260040161172e9190611e2f565b602060405180830381865afa15801561174b573d6000803e3d6000fd5b505050506040513d601f19601f8201168201806040525081019061176f91906121a3565b6040518363ffffffff1660e01b815260040161178c929190612493565b6020604051808303816000875af11580156117ab573d6000803e3d6000fd5b505050506040513d601f19601f820116820180604052508101906117cf9190612466565b505b600073e91d153e0b41518a2ce8dd3d7944fa863463a97d905060008173ffffffffffffffffffffffffffffffffffffffff166370a08231306040518263ffffffff1660e01b81526004016118259190611e2f565b602060405180830381865afa158015611842573d6000803e3d6000fd5b505050506040513d601f19601f8201168201806040525081019061186691906121a3565b111561196c578073ffffffffffffffffffffffffffffffffffffffff1663a9059cbb611890610e0a565b8373ffffffffffffffffffffffffffffffffffffffff166370a08231306040518263ffffffff1660e01b81526004016118c99190611e2f565b602060405180830381865afa1580156118e6573d6000803e3d6000fd5b505050506040513d601f19601f8201168201806040525081019061190a91906121a3565b6040518363ffffffff1660e01b8152600401611927929190612493565b6020604051808303816000875af1158015611946573d6000803e3d6000fd5b505050506040513d601f19601f8201168201806040525081019061196a9190612466565b505b5050565b6000600380549050905090565b611985611a00565b600073ffffffffffffffffffffffffffffffffffffffff168173ffffffffffffffffffffffffffffffffffffffff16036119f4576040517f08c379a00000000000000000000000000000000000000000000000000000000081526004016119eb906126db565b60405180910390fd5b6119fd81611bc5565b50565b611a08611c89565b73ffffffffffffffffffffffffffffffffffffffff16611a26610e0a565b73ffffffffffffffffffffffffffffffffffffffff1614611a7c576040517f08c379a0000000000000000000000000000000000000000000000000000000008152600401611a7390612747565b60405180910390fd5b565b6000808260ff1611611ac5576040517f08c379a0000000000000000000000000000000000000000000000000000000008152600401611abc906127b3565b60405180910390fd5b6064808360ff1664e8d4a5100086611add91906122a8565b611ae791906122a8565b611af19190612802565b611afb9190612802565b64e8d4a5100084611b0c91906122a8565b611b169190612833565b905092915050565b600080737f90122bf0700f9e7e1f688fe926940e8839f35390508073ffffffffffffffffffffffffffffffffffffffff16633df021246001600087876040518563ffffffff1660e01b8152600401611b799493929190612883565b6020604051808303816000875af1158015611b98573d6000803e3d6000fd5b505050506040513d601f19601f82011682018060405250810190611bbc91906121a3565b91505092915050565b60008060009054906101000a900473ffffffffffffffffffffffffffffffffffffffff169050816000806101000a81548173ffffffffffffffffffffffffffffffffffffffff021916908373ffffffffffffffffffffffffffffffffffffffff1602179055508173ffffffffffffffffffffffffffffffffffffffff168173ffffffffffffffffffffffffffffffffffffffff167f8be0079c531659141344cd1fd0a4f28419497f9722a3daafe3b4186f6b6457e060405160405180910390a35050565b600033905090565b600080fd5b600073ffffffffffffffffffffffffffffffffffffffff82169050919050565b6000611cc182611c96565b9050919050565b611cd181611cb6565b8114611cdc57600080fd5b50565b600081359050611cee81611cc8565b92915050565b600060208284031215611d0a57611d09611c91565b5b6000611d1884828501611cdf565b91505092915050565b60008115159050919050565b611d3681611d21565b82525050565b6000602082019050611d516000830184611d2d565b92915050565b600060ff82169050919050565b611d6d81611d57565b8114611d7857600080fd5b50565b600081359050611d8a81611d64565b92915050565b600060208284031215611da657611da5611c91565b5b6000611db484828501611d7b565b91505092915050565b6000819050919050565b611dd081611dbd565b8114611ddb57600080fd5b50565b600081359050611ded81611dc7565b92915050565b600060208284031215611e0957611e08611c91565b5b6000611e1784828501611dde565b91505092915050565b611e2981611cb6565b82525050565b6000602082019050611e446000830184611e20565b92915050565b60008060408385031215611e6157611e60611c91565b5b6000611e6f85828601611cdf565b9250506020611e8085828601611dde565b9150509250929050565b611e9381611dbd565b82525050565b6000602082019050611eae6000830184611e8a565b92915050565b600082825260208201905092915050565b7f496e76616c6964206164647265737320696e6465780000000000000000000000600082015250565b6000611efb601583611eb4565b9150611f0682611ec5565b602082019050919050565b60006020820190508181036000830152611f2a81611eee565b9050919050565b7f4e487b7100000000000000000000000000000000000000000000000000000000600052603260045260246000fd5b7f4d61782077686974656c6973746564206164647265737365732072656163686560008201527f6400000000000000000000000000000000000000000000000000000000000000602082015250565b6000611fbc602183611eb4565b9150611fc782611f60565b604082019050919050565b60006020820190508181036000830152611feb81611faf565b9050919050565b7f416c72656164792077686974656c697374656400000000000000000000000000600082015250565b6000612028601383611eb4565b915061203382611ff2565b602082019050919050565b600060208201905081810360008301526120578161201b565b9050919050565b7f4e487b7100000000000000000000000000000000000000000000000000000000600052601160045260246000fd5b600061209882611d57565b915060ff82036120ab576120aa61205e565b5b600182019050919050565b7f41646472657373206e6f742077686974656c6973746564000000000000000000600082015250565b60006120ec601783611eb4565b91506120f7826120b6565b602082019050919050565b6000602082019050818103600083015261211b816120df565b9050919050565b7f436f6e7472616374206e6f7420696e697469616c697a65640000000000000000600082015250565b6000612158601883611eb4565b915061216382612122565b602082019050919050565b600060208201905081810360008301526121878161214b565b9050919050565b60008151905061219d81611dc7565b92915050565b6000602082840312156121b9576121b8611c91565b5b60006121c78482850161218e565b91505092915050565b7f496e73756666696369656e7420555344432062616c616e636500000000000000600082015250565b6000612206601983611eb4565b9150612211826121d0565b602082019050919050565b60006020820190508181036000830152612235816121f9565b9050919050565b7f4e6f7468696e6720746f20726570616964000000000000000000000000000000600082015250565b6000612272601183611eb4565b915061227d8261223c565b602082019050919050565b600060208201905081810360008301526122a181612265565b9050919050565b60006122b382611dbd565b91506122be83611dbd565b9250817fffffffffffffffffffffffffffffffffffffffffffffffffffffffffffffffff04831182151516156122f7576122f661205e565b5b828202905092915050565b7f4465627420697320746f20736d616c6c00000000000000000000000000000000600082015250565b6000612338601083611eb4565b915061234382612302565b602082019050919050565b600060208201905081810360008301526123678161232b565b9050919050565b60006040820190506123836000830185611e20565b6123906020830184611e20565b9392505050565b7f496e73756666696369656e74205553444320616c6c6f77616e63650000000000600082015250565b60006123cd601b83611eb4565b91506123d882612397565b602082019050919050565b600060208201905081810360008301526123fc816123c0565b9050919050565b60006060820190506124186000830186611e20565b6124256020830185611e20565b6124326040830184611e8a565b949350505050565b61244381611d21565b811461244e57600080fd5b50565b6000815190506124608161243a565b92915050565b60006020828403121561247c5761247b611c91565b5b600061248a84828501612451565b91505092915050565b60006040820190506124a86000830185611e20565b6124b56020830184611e8a565b9392505050565b6000819050919050565b6000819050919050565b60006124eb6124e66124e1846124bc565b6124c6565b611dbd565b9050919050565b6124fb816124d0565b82525050565b60006080820190506125166000830187611e20565b6125236020830186611e8a565b61253060408301856124f2565b61253d6060830184611e20565b95945050505050565b600060408201905061255b6000830185611e8a565b6125686020830184611e8a565b9392505050565b6000819050919050565b600061ffff82169050919050565b60006125a261259d6125988461256f565b6124c6565b612579565b9050919050565b6125b281612587565b82525050565b60006080820190506125cd6000830187611e20565b6125da6020830186611e8a565b6125e76040830185611e20565b6125f460608301846125a9565b95945050505050565b7f416c726561647920696e697469616c697a656400000000000000000000000000600082015250565b6000612633601383611eb4565b915061263e826125fd565b602082019050919050565b6000602082019050818103600083015261266281612626565b9050919050565b7f4f776e61626c653a206e6577206f776e657220697320746865207a65726f206160008201527f6464726573730000000000000000000000000000000000000000000000000000602082015250565b60006126c5602683611eb4565b91506126d082612669565b604082019050919050565b600060208201905081810360008301526126f4816126b8565b9050919050565b7f4f776e61626c653a2063616c6c6572206973206e6f7420746865206f776e6572600082015250565b6000612731602083611eb4565b915061273c826126fb565b602082019050919050565b6000602082019050818103600083015261276081612724565b9050919050565b7f4d617820736c6970706167652072657175697265640000000000000000000000600082015250565b600061279d601583611eb4565b91506127a882612767565b602082019050919050565b600060208201905081810360008301526127cc81612790565b9050919050565b7f4e487b7100000000000000000000000000000000000000000000000000000000600052601260045260246000fd5b600061280d82611dbd565b915061281883611dbd565b925082612828576128276127d3565b5b828204905092915050565b600061283e82611dbd565b915061284983611dbd565b92508282101561285c5761285b61205e565b5b828203905092915050565b600081600f0b9050919050565b61287d81612867565b82525050565b60006080820190506128986000830187612874565b6128a56020830186612874565b6128b26040830185611e8a565b6128bf6060830184611e8a565b9594505050505056fea264697066735822122073034f2b1a5634084c58eaa59346d8b2a820b936e94f028ea2fed328d551719264736f6c634300080e0033",
  "immutableReferences": {},
  "source": "// SPDX-License-Identifier: MIT\npragma solidity 0.8.14;\n\nimport \"@openzeppelin/contracts/token/ERC20/IERC20.sol\";\nimport \"@openzeppelin/contracts/access/Ownable.sol\";\n\n/**\n* @title RealtRentOpti contract\n* @author Zerohix.lens\n* @notice Created by RealtRentOptiFactory contract\n**/\ncontract RealtRentOpti is Ownable {\n\n    bool private initialized;\n\n    address private constant WXDAI_ADDRESS = 0xe91D153E0b41518A2Ce8Dd3D7944Fa863463a97d;\n    address private constant USDC_ADDRESS = 0xDDAfbb505ad214D7b80b1f830fcCc89B60fb7A83;\n    address private constant RMM_LENDING_POOL_ADDRESS = 0x5B8D36De471880Ee21936f328AAB2383a280CB2A;\n    address private constant CURVE_3CRV_LENDING_POOL = 0x7f90122BF0700F9E7e1F688fe926940E8839F353;\n    address private constant XDAI_DEBT_ADDRESS = 0x6a7CeD66902D07066Ad08c81179d17d0fbE36829;\n\n    /// WXDAI token index in the curve's 3pool\n    int128 private constant WXDAI_3CRV_INDEX = 0;\n\n    /// USDC token index in the curve's 3pool\n    int128 private constant USDC_3CRV_INDEX = 1;\n\n    /// Max amount of USDC spend each time rmmDeposit() or rmmRepay is called, should be close to rent amount\n    uint256 private maxUsdcAmountToSpend;\n\n    /// Mapping of whitelisted addresses that can call deposit or repay (ie: Gelato contract...)\n    mapping( address => bool ) private whitelist;\n\n    /// List of whitelisted addresses\n    address[] public whitelistAddresses;\n\n    /// Maximum of 5 whitelisted addresses\n    uint8 private constant MAX_WHITELISTED_ADDRESS = 5;\n\n    /**\n    * @dev emitted on deposit\n    * @param _amountUSDC the amount of USDC spent\n    * @param _amountWXDAI the amount of WXDAI deposited\n    **/\n    event Deposit( uint256 _amountUSDC, uint256 _amountWXDAI );\n\n    /**\n    * @dev emitted on repaid\n    * @param _amountUSDC the amount of USDC spent\n    * @param _amountWXDAI the amount of WXDAI repaid\n    **/\n    event Repaid( uint256 _amountUSDC, uint256 _amountWXDAI );\n\n    modifier onlyWhitelisted() {\n        require(whitelist[msg.sender ], \"Address not whitelisted\");\n        _;\n    }\n\n    function initialize( address _owner, uint256 _maxUsdcAmountToSpend ) public onlyOwner {\n        require(!initialized, \"Already initialized\");\n        initialized = true;\n        transferOwnership(_owner);\n        maxUsdcAmountToSpend = _maxUsdcAmountToSpend;\n        whitelist[_owner] = true;\n        whitelistAddresses.push(_owner);\n    }\n\n    /**\n    * @dev Swap USDC to Wxdai from Curve 3pool and deposit on RMM LendingPool\n    * @notice Swap USDC to Wxdai and deposit on RMM\n    *\n    * Emit a Deposit event\n    *\n    * Requirements:\n    * - `msg.sender` must be whitelisted\n    * - `owner` must have enough USDC\n    * - `owner` must have allowed enough USDC to smartContract\n    */\n    function rmmDeposit() external onlyWhitelisted {\n        require(initialized, \"Contract not initialized\");\n\n        IERC20 usdc = IERC20(USDC_ADDRESS);\n\n        // owner need to approve contract to spend its usdc\n        require(usdc.balanceOf(owner()) > 0, \"Insufficient USDC balance\");\n\n        // If usdc wallet balance is greater than maxUsdcAmountToSpend then only spend maxUsdcAmountToSpend\n        uint256 usdcAmountToDeposit = usdc.balanceOf(owner()) > maxUsdcAmountToSpend ? maxUsdcAmountToSpend : usdc.balanceOf(owner());\n\n        require(usdc.allowance(owner(), address(this)) >= usdcAmountToDeposit, \"Insufficient USDC allowance\");\n\n        usdc.transferFrom(owner(), address(this), usdcAmountToDeposit );\n\n        // Prepare to swap USDC => WXDAI\n        usdc.approve(CURVE_3CRV_LENDING_POOL, usdcAmountToDeposit);\n\n        // USDC is 6 decimals so convert to 18 decimals wxdai equivalent and apply 0.1% max slippage\n        uint256 minWxdaiToGet = getMinWxdaiToReceive(usdcAmountToDeposit, 10);\n\n        uint256 wxdaiAmount = _swapUsdcToWxdai(usdcAmountToDeposit, minWxdaiToGet);\n\n        IAaveLendingPool lendingPool = IAaveLendingPool(RMM_LENDING_POOL_ADDRESS);\n        IERC20(WXDAI_ADDRESS).approve(RMM_LENDING_POOL_ADDRESS, wxdaiAmount);\n        lendingPool.deposit(WXDAI_ADDRESS, wxdaiAmount, owner(), 0);\n\n        emit Deposit(usdcAmountToDeposit, wxdaiAmount);\n    }\n\n    /**\n    * @dev Swap USDC to Wxdai from Curve 3pool and repaid loan on RMM\n    * @notice Swap USDC to Wxdai and repaid on RMM\n    *\n    * Emit a Repaid event\n    *\n    * Requirements:\n    * - `msg.sender` must be whitelisted\n    * - `owner` must have enough USDC\n    * - `owner` must have xDai Borrowing\n    * - `owner` must have allowed enough USDC to smartContract\n    */\n    function rmmRepay() external onlyWhitelisted {\n        require(initialized, \"Contract not initialized\");\n\n        IERC20 usdc = IERC20(USDC_ADDRESS);\n        require(usdc.balanceOf(owner()) > 0, \"Insufficient USDC balance\");\n\n        IERC20 xdaiDebt = IERC20(XDAI_DEBT_ADDRESS);\n        require(xdaiDebt.balanceOf(owner()) > 0, \"Nothing to repaid\");\n        require(xdaiDebt.balanceOf(owner()) > (maxUsdcAmountToSpend * 10**12), \"Debt is to small\");\n\n        uint256 usdcAmountAvailable = usdc.balanceOf(owner()) > maxUsdcAmountToSpend ? maxUsdcAmountToSpend : usdc.balanceOf(owner());\n\n        require(usdc.allowance(owner(), address(this)) >= usdcAmountAvailable, \"Insufficient USDC allowance\");\n\n        usdc.transferFrom(owner(), address(this), usdcAmountAvailable);\n\n        // Prepare to swap USDC => WXDAI\n        usdc.approve(CURVE_3CRV_LENDING_POOL, usdcAmountAvailable);\n        // USDC is 6 decimals so convert to 18 decimals wxdai equivalent and apply 0.1% max slippage\n        uint256 minWxdaiToGet = getMinWxdaiToReceive(usdcAmountAvailable, 10);\n\n        uint256 wxdaiToRepaid = _swapUsdcToWxdai(usdcAmountAvailable, minWxdaiToGet);\n\n        IAaveLendingPool lendingPool = IAaveLendingPool(RMM_LENDING_POOL_ADDRESS);\n        IERC20(WXDAI_ADDRESS).approve(RMM_LENDING_POOL_ADDRESS, wxdaiToRepaid);\n        lendingPool.repay(WXDAI_ADDRESS, wxdaiToRepaid, 2, owner()); // 2 = variable debt\n\n        emit Repaid(usdcAmountAvailable, wxdaiToRepaid);\n    }\n\n    /**\n    * @dev Transfer every USDC or WxDai stuck on the contract to the owner\n    * @notice Redeem USDC and WxDai to owner\n    *\n    * Emit a Repaid event\n    *\n    * Requirements:\n    * - `msg.sender` must be the owner\n    */\n    function redeemTokens() external onlyOwner {\n        require(initialized, \"Contract not initialized\");\n\n        IERC20 usdc = IERC20(USDC_ADDRESS);\n        if( usdc.balanceOf(address(this)) > 0 ) {\n            usdc.transfer(owner(), usdc.balanceOf(address(this)));\n        }\n        IERC20 wxdai = IERC20(WXDAI_ADDRESS);\n        if( wxdai.balanceOf(address(this)) > 0 ) {\n            wxdai.transfer(owner(), wxdai.balanceOf(address(this)));\n        }\n    }\n\n    /**\n    * @notice Update the maximum USDC amount to be spent\n    *\n    * Requirements:\n    * - `msg.sender` must be the owner\n    */\n    function setMaxUsdcAmountToSpend( uint256 _maxUsdcAmountToSpend ) external onlyOwner {\n        maxUsdcAmountToSpend = _maxUsdcAmountToSpend;\n    }\n\n    /**\n    * @notice Add address to the whitelist\n    * @param _address the address to be whitelisted\n    *\n    * Requirements:\n    * - `msg.sender` must be the owner\n    * - `_address` must not be already whitelisted\n    */\n    function whitelistAddress( address _address ) external onlyOwner {\n\n        require(whitelistAddresses.length < MAX_WHITELISTED_ADDRESS, \"Max whitelisted addresses reached\");\n        require(whitelist[_address] == false, \"Already whitelisted\");\n\n        bool alreadyKnown;\n\n        for( uint8 i = 0; i< whitelistAddresses.length; i++ ) {\n            if( whitelistAddresses[i] == _address ) {\n                alreadyKnown = true;\n                break;\n            }\n        }\n\n        if( ! alreadyKnown ) {\n            whitelistAddresses.push(_address);\n        }\n\n        whitelist[_address] = true;\n    }\n\n    /**\n    * @notice Remove an address from the whitelist\n    * @param _addressIndex the index of address in the whitelistAddresses array\n    *\n    * Requirements:\n    * - `msg.sender` must be the owner\n    * - `_addressIndex` must exists\n    */\n    function removeFromWhitelist( uint8 _addressIndex ) external onlyOwner {\n        require( whitelistAddresses.length > _addressIndex, \"Invalid address index\" );\n        whitelist[whitelistAddresses[_addressIndex]] = false;\n    }\n\n    function whitelistSize() external view returns(uint256) {\n        return whitelistAddresses.length;\n    }\n\n    function isWhitelisted( address _address ) external view returns(bool) {\n        return whitelist[_address];\n    }\n\n    function getMinWxdaiToReceive( uint256 _usdcAmount, uint8 _bpsMaxSlippage ) private pure returns(uint256) {\n        // 1 bps = 0.01%\n        // 10 bps = 10/100/100\n        require( _bpsMaxSlippage > 0, \"Max slippage required\" );\n        return (_usdcAmount * 10**12) - (_usdcAmount * 10**12 * _bpsMaxSlippage / 100 / 100);\n    }\n\n    function _swapUsdcToWxdai(uint256 _usdcAmount, uint256 _minWxdaiToReceive ) private returns(uint256) {\n        ICurveSwap iCurveSwap = ICurveSwap(CURVE_3CRV_LENDING_POOL);\n        return iCurveSwap.exchange(USDC_3CRV_INDEX, WXDAI_3CRV_INDEX, _usdcAmount, _minWxdaiToReceive);\n    }\n\n}\n\ninterface IAaveLendingPool {\n\n    function deposit(\n        address asset,\n        uint256 amount,\n        address onBehalfOf,\n        uint16 referralCode\n    ) external;\n\n    function repay(\n        address asset,\n        uint256 amount,\n        uint256 rateMode,\n        address onBehalfOf\n    ) external returns (uint256);\n}\n\ninterface ICurveSwap {\n\n    function exchange(\n        int128 _tokenIndexToSend,\n        int128 _tokenIndexToReceive,\n        uint256 _tokenAmountToSend,\n        uint256 _minAmountToReceive\n    ) external returns(uint256);\n}",
  "sourcePath": "/Users/mickael/Perso/Developpement/realt-rent/truffle/contracts/RealtRentOpti.sol",
  "compiler": {
    "name": "solc",
    "version": "0.8.14+commit.80d49f37.Emscripten.clang"
  },
  "schemaVersion": "3.4.10",
  "updatedAt": "2022-11-23T11:13:31.791Z",
  "devdoc": {
    "author": "Zerohix.lens",
    "events": {
      "Deposit(uint256,uint256)": {
        "details": "emitted on deposit",
        "params": {
          "_amountUSDC": "the amount of USDC spent",
          "_amountWXDAI": "the amount of WXDAI deposited*"
        }
      },
      "Repaid(uint256,uint256)": {
        "details": "emitted on repaid",
        "params": {
          "_amountUSDC": "the amount of USDC spent",
          "_amountWXDAI": "the amount of WXDAI repaid*"
        }
      }
    },
    "kind": "dev",
    "methods": {
      "owner()": {
        "details": "Returns the address of the current owner."
      },
      "redeemTokens()": {
        "details": "Transfer every USDC or WxDai stuck on the contract to the owner"
      },
      "removeFromWhitelist(uint8)": {
        "params": {
          "_addressIndex": "the index of address in the whitelistAddresses array Requirements: - `msg.sender` must be the owner - `_addressIndex` must exists"
        }
      },
      "renounceOwnership()": {
        "details": "Leaves the contract without owner. It will not be possible to call `onlyOwner` functions anymore. Can only be called by the current owner. NOTE: Renouncing ownership will leave the contract without an owner, thereby removing any functionality that is only available to the owner."
      },
      "rmmDeposit()": {
        "details": "Swap USDC to Wxdai from Curve 3pool and deposit on RMM LendingPool"
      },
      "rmmRepay()": {
        "details": "Swap USDC to Wxdai from Curve 3pool and repaid loan on RMM"
      },
      "transferOwnership(address)": {
        "details": "Transfers ownership of the contract to a new account (`newOwner`). Can only be called by the current owner."
      },
      "whitelistAddress(address)": {
        "params": {
          "_address": "the address to be whitelisted Requirements: - `msg.sender` must be the owner - `_address` must not be already whitelisted"
        }
      }
    },
    "title": "RealtRentOpti contract",
    "version": 1
  },
  "userdoc": {
    "kind": "user",
    "methods": {
      "redeemTokens()": {
        "notice": "Redeem USDC and WxDai to owner Emit a Repaid event Requirements: - `msg.sender` must be the owner"
      },
      "removeFromWhitelist(uint8)": {
        "notice": "Remove an address from the whitelist"
      },
      "rmmDeposit()": {
        "notice": "Swap USDC to Wxdai and deposit on RMM Emit a Deposit event Requirements: - `msg.sender` must be whitelisted - `owner` must have enough USDC - `owner` must have allowed enough USDC to smartContract"
      },
      "rmmRepay()": {
        "notice": "Swap USDC to Wxdai and repaid on RMM Emit a Repaid event Requirements: - `msg.sender` must be whitelisted - `owner` must have enough USDC - `owner` must have xDai Borrowing - `owner` must have allowed enough USDC to smartContract"
      },
      "setMaxUsdcAmountToSpend(uint256)": {
        "notice": "Update the maximum USDC amount to be spent Requirements: - `msg.sender` must be the owner"
      },
      "whitelistAddress(address)": {
        "notice": "Add address to the whitelist"
      },
      "whitelistAddresses(uint256)": {
        "notice": "List of whitelisted addresses"
      }
    },
    "notice": "Created by RealtRentOptiFactory contract*",
    "version": 1
  }
}